{
  "contractName": "Meowbject",
  "abi": [
    {
      "constant": true,
      "inputs": [
        {
          "name": "",
          "type": "uint256"
        }
      ],
      "name": "qrs",
      "outputs": [
        {
          "name": "",
          "type": "bytes32"
        }
      ],
      "payable": false,
      "stateMutability": "view",
      "type": "function"
    },
    {
      "anonymous": false,
      "inputs": [
        {
          "indexed": false,
          "name": "_message",
          "type": "string"
        }
      ],
      "name": "MeowbjectAdded",
      "type": "event"
    },
    {
      "anonymous": false,
      "inputs": [
        {
          "indexed": false,
          "name": "_message",
          "type": "string"
        }
      ],
      "name": "MeowbjectClaimed",
      "type": "event"
    },
    {
      "constant": false,
      "inputs": [
        {
          "name": "_device",
          "type": "bytes32"
        },
        {
          "name": "_address",
          "type": "address"
        }
      ],
      "name": "addAccount",
      "outputs": [],
      "payable": false,
      "stateMutability": "nonpayable",
      "type": "function"
    },
    {
      "constant": true,
      "inputs": [
        {
          "name": "_device",
          "type": "bytes32"
        }
      ],
      "name": "checkAccount",
      "outputs": [
        {
          "name": "account",
          "type": "address"
        }
      ],
      "payable": false,
      "stateMutability": "view",
      "type": "function"
    },
    {
      "constant": false,
      "inputs": [
        {
          "name": "_qr",
          "type": "string"
        },
        {
          "name": "_tributes",
          "type": "string"
        }
      ],
      "name": "addQR",
      "outputs": [],
      "payable": false,
      "stateMutability": "nonpayable",
      "type": "function"
    },
    {
      "constant": false,
      "inputs": [
        {
          "name": "_id",
          "type": "uint256"
        },
        {
          "name": "_qr",
          "type": "string"
        },
        {
          "name": "_sender",
          "type": "address"
        }
      ],
      "name": "claimQR",
      "outputs": [],
      "payable": false,
      "stateMutability": "nonpayable",
      "type": "function"
    },
    {
      "constant": true,
      "inputs": [
        {
          "name": "_id",
          "type": "uint256"
        }
      ],
      "name": "checkQR",
      "outputs": [
        {
          "name": "qr",
          "type": "bytes32"
        }
      ],
      "payable": false,
      "stateMutability": "view",
      "type": "function"
    },
    {
      "constant": true,
      "inputs": [
        {
          "name": "_qr",
          "type": "bytes32"
        }
      ],
      "name": "checkOwner",
      "outputs": [
        {
          "name": "owner",
          "type": "address"
        }
      ],
      "payable": false,
      "stateMutability": "view",
      "type": "function"
    },
    {
      "constant": true,
      "inputs": [
        {
          "name": "_id",
          "type": "uint256"
        }
      ],
      "name": "getTributes",
      "outputs": [
        {
          "name": "tributes",
          "type": "string"
        }
      ],
      "payable": false,
      "stateMutability": "view",
      "type": "function"
    }
  ],
  "bytecode": "0x608060405234801561001057600080fd5b50610d08806100206000396000f3fe608060405234801561001057600080fd5b50600436106100a5576000357c010000000000000000000000000000000000000000000000000000000090048063bf3cd52411610078578063bf3cd52414610216578063e3e039e4146102fb578063ec83833a1461044d578063f06545791461048f576100a5565b8063096a75dc146100aa578063328af55a146100ec5780637a42a9cd1461015a5780637b65c1d9146101c8575b600080fd5b6100d6600480360360208110156100c057600080fd5b8101908080359060200190929190505050610536565b6040518082815260200191505060405180910390f35b6101186004803603602081101561010257600080fd5b8101908080359060200190929190505050610557565b604051808273ffffffffffffffffffffffffffffffffffffffff1673ffffffffffffffffffffffffffffffffffffffff16815260200191505060405180910390f35b6101866004803603602081101561017057600080fd5b8101908080359060200190929190505050610593565b604051808273ffffffffffffffffffffffffffffffffffffffff1673ffffffffffffffffffffffffffffffffffffffff16815260200191505060405180910390f35b610214600480360360408110156101de57600080fd5b8101908080359060200190929190803573ffffffffffffffffffffffffffffffffffffffff1690602001909291905050506105d0565b005b6102f96004803603606081101561022c57600080fd5b81019080803590602001909291908035906020019064010000000081111561025357600080fd5b82018360208201111561026557600080fd5b8035906020019184600183028401116401000000008311171561028757600080fd5b91908080601f016020809104026020016040519081016040528093929190818152602001838380828437600081840152601f19601f820116905080830192505050505050509192919290803573ffffffffffffffffffffffffffffffffffffffff1690602001909291905050506106dc565b005b61044b6004803603604081101561031157600080fd5b810190808035906020019064010000000081111561032e57600080fd5b82018360208201111561034057600080fd5b8035906020019184600183028401116401000000008311171561036257600080fd5b91908080601f016020809104026020016040519081016040528093929190818152602001838380828437600081840152601f19601f820116905080830192505050505050509192919290803590602001906401000000008111156103c557600080fd5b8201836020820111156103d757600080fd5b803590602001918460018302840111640100000000831117156103f957600080fd5b91908080601f016020809104026020016040519081016040528093929190818152602001838380828437600081840152601f19601f820116905080830192505050505050509192919290505050610979565b005b6104796004803603602081101561046357600080fd5b8101908080359060200190929190505050610b09565b6040518082815260200191505060405180910390f35b6104bb600480360360208110156104a557600080fd5b8101908080359060200190929190505050610b26565b6040518080602001828103825283818151815260200191508051906020019080838360005b838110156104fb5780820151818401526020810190506104e0565b50505050905090810190601f1680156105285780820380516001836020036101000a031916815260200191505b509250505060405180910390f35b6001818154811061054357fe5b906000526020600020016000915090505481565b600080600083815260200190815260200160002060009054906101000a900473ffffffffffffffffffffffffffffffffffffffff169050919050565b60006002600083815260200190815260200160002060009054906101000a900473ffffffffffffffffffffffffffffffffffffffff169050919050565b600073ffffffffffffffffffffffffffffffffffffffff1660008084815260200190815260200160002060009054906101000a900473ffffffffffffffffffffffffffffffffffffffff1673ffffffffffffffffffffffffffffffffffffffff1614610687576040517f08c379a0000000000000000000000000000000000000000000000000000000008152600401808060200182810382526021815260200180610cbc6021913960400191505060405180910390fd5b8060008084815260200190815260200160002060006101000a81548173ffffffffffffffffffffffffffffffffffffffff021916908373ffffffffffffffffffffffffffffffffffffffff1602179055505050565b6000826040516020018082805190602001908083835b6020831061071557805182526020820191506020810190506020830392506106f2565b6001836020036101000a03801982511681845116808217855250505050505090500191505060405160208183030381529060405280519060200120905060006001858154811061076157fe5b906000526020600020015490508181146107e3576040517f08c379a000000000000000000000000000000000000000000000000000000000815260040180806020018281038252601e8152602001807f74686973206973206e6f7420612076616c6964207172206d792064756465000081525060200191505060405180910390fd5b600073ffffffffffffffffffffffffffffffffffffffff166002600084815260200190815260200160002060009054906101000a900473ffffffffffffffffffffffffffffffffffffffff1673ffffffffffffffffffffffffffffffffffffffff16146108b8576040517f08c379a00000000000000000000000000000000000000000000000000000000081526004018080602001828103825260158152602001807f7468697320717220636f64652069732074616b656e000000000000000000000081525060200191505060405180910390fd5b826002600084815260200190815260200160002060006101000a81548173ffffffffffffffffffffffffffffffffffffffff021916908373ffffffffffffffffffffffffffffffffffffffff1602179055507fce481c60e384e1a5e84ea37e25a56a2008355c58a7de32554cc1b19d59c2175f60405180806020018281038252600b8152602001807f515220636c61696d65642100000000000000000000000000000000000000000081525060200191505060405180910390a15050505050565b6000826040516020018082805190602001908083835b602083106109b2578051825260208201915060208101905060208303925061098f565b6001836020036101000a03801982511681845116808217855250505050505090500191505060405160208183030381529060405280519060200120905080600360006001805490508152602001908152602001600020819055506001819080600181540180825580915050906001820390600052602060002001600090919290919091505550610a40610c03565b60405180602001604052808481525090506004819080600181540180825580915050906001820390600052602060002001600090919290919091506000820151816000019080519060200190610a97929190610c16565b505050507fb43e89a881c664a01df3057319bea7dbc3650c000e04a0891e2c662b29c812986040518080602001828103825260188152602001807f51522073746f726564207375636365737366756c6c792121000000000000000081525060200191505060405180910390a150505050565b600060036000838152602001908152602001600020549050919050565b6060610b30610c03565b60048381548110610b3d57fe5b90600052602060002001604051806020016040529081600082018054600181600116156101000203166002900480601f016020809104026020016040519081016040528092919081815260200182805460018160011615610100020316600290048015610beb5780601f10610bc057610100808354040283529160200191610beb565b820191906000526020600020905b815481529060010190602001808311610bce57829003601f168201915b50505050508152505090508060000151915050919050565b6040518060200160405280606081525090565b828054600181600116156101000203166002900490600052602060002090601f016020900481019282601f10610c5757805160ff1916838001178555610c85565b82800160010185558215610c85579182015b82811115610c84578251825591602001919060010190610c69565b5b509050610c929190610c96565b5090565b610cb891905b80821115610cb4576000816000905550600101610c9c565b5090565b9056fe746869732064657669636520697320616c72656164792072656769737465726564a165627a7a723058209b19e097a8571b7038dcbe22c16c2020439b0a62fb28812113d2a9c6549d52b90029",
  "source": "pragma solidity >=0.4.21 <0.6.0;\n\ncontract Meowbject {\n    event MeowbjectAdded(string _message);\n    event MeowbjectClaimed(string _message);\n\n    mapping(bytes32 => address) accounts;\n\n    bytes32[] public qrs;\n    mapping(bytes32 => address) qrOwnership;\n    mapping(uint => bytes32) qrIds;\n\n    struct Meowbjectributes {\n        string shape;\n    }\n\n    Meowbjectributes[] meowbjectributes;\n\n    function addAccount(bytes32 _device, address _address) public {\n        require(accounts[_device] == address(0), \"this device is already registered\");\n        accounts[_device] = _address;\n    }\n\n    function checkAccount(bytes32 _device) public view returns (address account) {\n        return accounts[_device];\n    }\n\n    function addQR(string memory _qr, string memory _tributes) public {\n        bytes32 hashedQR = keccak256(abi.encodePacked(_qr));\n        qrIds[qrs.length] = hashedQR;\n        qrs.push(hashedQR);\n        Meowbjectributes memory _meowbjectributes = Meowbjectributes({shape: _tributes});\n        meowbjectributes.push(_meowbjectributes);\n        emit MeowbjectAdded(\"QR stored successfully!!\");\n    }\n\n    function claimQR(uint _id, string memory _qr, address _sender) public {\n        bytes32 hashedQR = keccak256((abi.encodePacked(_qr)));\n        bytes32 pQR = qrs[_id];\n        require(pQR == hashedQR, \"this is not a valid qr my dude\");\n        require(qrOwnership[hashedQR] == address(0), \"this qr code is taken\");\n        qrOwnership[hashedQR] = _sender;\n        emit MeowbjectClaimed('QR claimed!');\n    }\n\n    function checkQR(uint _id) public view returns (bytes32 qr) {\n        return qrIds[_id];\n    }\n\n    function checkOwner(bytes32 _qr) public view returns (address owner) {\n        return qrOwnership[_qr];\n    }\n\n    function getTributes(uint _id) public view returns (string memory tributes) {\n        Meowbjectributes memory _tributes = meowbjectributes[_id];\n        return _tributes.shape;\n    }\n}\n",
  "sourcePath": "C:/Users/ariel/meowbjects/contracts/Meowbject.sol",
  "compiler": {
    "name": "solc",
    "version": "0.5.8+commit.23d335f2.Emscripten.clang"
  },
  "schemaVersion": "3.0.11",
  "updatedAt": "2019-09-28T07:30:02.819Z",
  "devdoc": {
    "methods": {}
  },
  "userdoc": {
    "methods": {}
  }
}