{
  "contractName": "Meowbject",
  "abi": [
    {
      "constant": true,
      "inputs": [
        {
          "name": "",
          "type": "uint256"
        }
      ],
      "name": "qrs",
      "outputs": [
        {
          "name": "",
          "type": "bytes32"
        }
      ],
      "payable": false,
      "stateMutability": "view",
      "type": "function"
    },
    {
      "anonymous": false,
      "inputs": [
        {
          "indexed": false,
          "name": "_message",
          "type": "string"
        }
      ],
      "name": "MeowbjectAdded",
      "type": "event"
    },
    {
      "anonymous": false,
      "inputs": [
        {
          "indexed": false,
          "name": "_message",
          "type": "string"
        }
      ],
      "name": "MeowbjectClaimed",
      "type": "event"
    },
    {
      "constant": false,
      "inputs": [
        {
          "name": "_qr",
          "type": "string"
        },
        {
          "name": "_tributes",
          "type": "string"
        }
      ],
      "name": "addQR",
      "outputs": [],
      "payable": false,
      "stateMutability": "nonpayable",
      "type": "function"
    },
    {
      "constant": false,
      "inputs": [
        {
          "name": "_id",
          "type": "uint256"
        },
        {
          "name": "_qr",
          "type": "string"
        },
        {
          "name": "_sender",
          "type": "address"
        }
      ],
      "name": "claimQR",
      "outputs": [],
      "payable": false,
      "stateMutability": "nonpayable",
      "type": "function"
    },
    {
      "constant": true,
      "inputs": [
        {
          "name": "_id",
          "type": "uint256"
        }
      ],
      "name": "checkQR",
      "outputs": [
        {
          "name": "qr",
          "type": "bytes32"
        }
      ],
      "payable": false,
      "stateMutability": "view",
      "type": "function"
    },
    {
      "constant": true,
      "inputs": [
        {
          "name": "_qr",
          "type": "bytes32"
        }
      ],
      "name": "checkOwner",
      "outputs": [
        {
          "name": "owner",
          "type": "address"
        }
      ],
      "payable": false,
      "stateMutability": "view",
      "type": "function"
    },
    {
      "constant": true,
      "inputs": [
        {
          "name": "_id",
          "type": "uint256"
        }
      ],
      "name": "getTributes",
      "outputs": [
        {
          "name": "tributes",
          "type": "string"
        }
      ],
      "payable": false,
      "stateMutability": "view",
      "type": "function"
    }
  ],
  "bytecode": "0x608060405234801561001057600080fd5b506109e6806100206000396000f3fe608060405234801561001057600080fd5b506004361061007f576000357c010000000000000000000000000000000000000000000000000000000090048063096a75dc146100845780637a42a9cd146100c6578063bf3cd52414610134578063e3e039e414610219578063ec83833a1461036b578063f0654579146103ad575b600080fd5b6100b06004803603602081101561009a57600080fd5b8101908080359060200190929190505050610454565b6040518082815260200191505060405180910390f35b6100f2600480360360208110156100dc57600080fd5b8101908080359060200190929190505050610475565b604051808273ffffffffffffffffffffffffffffffffffffffff1673ffffffffffffffffffffffffffffffffffffffff16815260200191505060405180910390f35b6102176004803603606081101561014a57600080fd5b81019080803590602001909291908035906020019064010000000081111561017157600080fd5b82018360208201111561018357600080fd5b803590602001918460018302840111640100000000831117156101a557600080fd5b91908080601f016020809104026020016040519081016040528093929190818152602001838380828437600081840152601f19601f820116905080830192505050505050509192919290803573ffffffffffffffffffffffffffffffffffffffff1690602001909291905050506104b2565b005b6103696004803603604081101561022f57600080fd5b810190808035906020019064010000000081111561024c57600080fd5b82018360208201111561025e57600080fd5b8035906020019184600183028401116401000000008311171561028057600080fd5b91908080601f016020809104026020016040519081016040528093929190818152602001838380828437600081840152601f19601f820116905080830192505050505050509192919290803590602001906401000000008111156102e357600080fd5b8201836020820111156102f557600080fd5b8035906020019184600183028401116401000000008311171561031757600080fd5b91908080601f016020809104026020016040519081016040528093929190818152602001838380828437600081840152601f19601f820116905080830192505050505050509192919290505050610679565b005b6103976004803603602081101561038157600080fd5b8101908080359060200190929190505050610808565b6040518082815260200191505060405180910390f35b6103d9600480360360208110156103c357600080fd5b8101908080359060200190929190505050610825565b6040518080602001828103825283818151815260200191508051906020019080838360005b838110156104195780820151818401526020810190506103fe565b50505050905090810190601f1680156104465780820380516001836020036101000a031916815260200191505b509250505060405180910390f35b6000818154811061046157fe5b906000526020600020016000915090505481565b60006001600083815260200190815260200160002060009054906101000a900473ffffffffffffffffffffffffffffffffffffffff169050919050565b6000826040516020018082805190602001908083835b602083106104eb57805182526020820191506020810190506020830392506104c8565b6001836020036101000a038019825116818451168082178552505050505050905001915050604051602081830303815290604052805190602001209050600080858154811061053657fe5b906000526020600020015490508181146105b8576040517f08c379a000000000000000000000000000000000000000000000000000000000815260040180806020018281038252601e8152602001807f74686973206973206e6f7420612076616c6964207172206d792064756465000081525060200191505060405180910390fd5b826001600084815260200190815260200160002060006101000a81548173ffffffffffffffffffffffffffffffffffffffff021916908373ffffffffffffffffffffffffffffffffffffffff1602179055507fce481c60e384e1a5e84ea37e25a56a2008355c58a7de32554cc1b19d59c2175f60405180806020018281038252600b8152602001807f515220636c61696d65642100000000000000000000000000000000000000000081525060200191505060405180910390a15050505050565b6000826040516020018082805190602001908083835b602083106106b2578051825260208201915060208101905060208303925061068f565b6001836020036101000a03801982511681845116808217855250505050505090500191505060405160208183030381529060405280519060200120905080600260008080549050815260200190815260200160002081905550600081908060018154018082558091505090600182039060005260206000200160009091929091909150555061073f610902565b60405180602001604052808481525090506003819080600181540180825580915050906001820390600052602060002001600090919290919091506000820151816000019080519060200190610796929190610915565b505050507fb43e89a881c664a01df3057319bea7dbc3650c000e04a0891e2c662b29c812986040518080602001828103825260188152602001807f51522073746f726564207375636365737366756c6c792121000000000000000081525060200191505060405180910390a150505050565b600060026000838152602001908152602001600020549050919050565b606061082f610902565b6003838154811061083c57fe5b90600052602060002001604051806020016040529081600082018054600181600116156101000203166002900480601f0160208091040260200160405190810160405280929190818152602001828054600181600116156101000203166002900480156108ea5780601f106108bf576101008083540402835291602001916108ea565b820191906000526020600020905b8154815290600101906020018083116108cd57829003601f168201915b50505050508152505090508060000151915050919050565b6040518060200160405280606081525090565b828054600181600116156101000203166002900490600052602060002090601f016020900481019282601f1061095657805160ff1916838001178555610984565b82800160010185558215610984579182015b82811115610983578251825591602001919060010190610968565b5b5090506109919190610995565b5090565b6109b791905b808211156109b357600081600090555060010161099b565b5090565b9056fea165627a7a72305820d8722869302a7861509818ec97ccda1bfcbe9fa02ba96b04c04142a4634121d70029",
  "source": "pragma solidity >=0.4.21 <0.6.0;\n\ncontract Meowbject {\n    event MeowbjectAdded(string _message);\n    event MeowbjectClaimed(string _message);\n\n    bytes32[] public qrs;\n    mapping(bytes32 => address) qrOwnership;\n    mapping(uint => bytes32) qrIds;\n\n    struct Meowbjectributes {\n        string shape;\n    }\n\n    Meowbjectributes[] meowbjectributes;\n\n    function addQR(string memory _qr, string memory _tributes) public {\n        bytes32 hashedQR = keccak256(abi.encodePacked(_qr));\n        qrIds[qrs.length] = hashedQR;\n        qrs.push(hashedQR);\n        Meowbjectributes memory _meowbjectributes = Meowbjectributes({shape: _tributes});\n        meowbjectributes.push(_meowbjectributes);\n        emit MeowbjectAdded(\"QR stored successfully!!\");\n    }\n\n    function claimQR(uint _id, string memory _qr, address _sender) public {\n        bytes32 hashedQR = keccak256((abi.encodePacked(_qr)));\n        bytes32 pQR = qrs[_id];\n        require(pQR == hashedQR, \"this is not a valid qr my dude\");\n        qrOwnership[hashedQR] = _sender;\n        emit MeowbjectClaimed('QR claimed!');\n    }\n\n    function checkQR(uint _id) public view returns (bytes32 qr) {\n        return qrIds[_id];\n    }\n\n    function checkOwner(bytes32 _qr) public view returns (address owner) {\n        return qrOwnership[_qr];\n    }\n\n    function getTributes(uint _id) public view returns (string memory tributes) {\n        Meowbjectributes memory _tributes = meowbjectributes[_id];\n        return _tributes.shape;\n    }\n}\n",
  "sourcePath": "/Users/aklevecz/meowbject/contracts/Meowbject.sol",
  "compiler": {
    "name": "solc",
    "version": "0.5.8+commit.23d335f2.Emscripten.clang"
  },
  "schemaVersion": "3.0.11",
  "updatedAt": "2019-09-26T16:10:49.456Z",
  "devdoc": {
    "methods": {}
  },
  "userdoc": {
    "methods": {}
  }
}