{
  "contractName": "Meowbject",
  "abi": [
    {
      "constant": true,
      "inputs": [
        {
          "name": "",
          "type": "uint256"
        }
      ],
      "name": "qrs",
      "outputs": [
        {
          "name": "",
          "type": "bytes32"
        }
      ],
      "payable": false,
      "stateMutability": "view",
      "type": "function"
    },
    {
      "anonymous": false,
      "inputs": [
        {
          "indexed": false,
          "name": "_message",
          "type": "string"
        }
      ],
      "name": "MeowbjectAdded",
      "type": "event"
    },
    {
      "anonymous": false,
      "inputs": [
        {
          "indexed": false,
          "name": "_message",
          "type": "string"
        }
      ],
      "name": "MeowbjectClaimed",
      "type": "event"
    },
    {
      "constant": false,
      "inputs": [
        {
          "name": "_qr",
          "type": "string"
        }
      ],
      "name": "addQR",
      "outputs": [],
      "payable": false,
      "stateMutability": "nonpayable",
      "type": "function"
    },
    {
      "constant": false,
      "inputs": [
        {
          "name": "_id",
          "type": "uint256"
        },
        {
          "name": "_qr",
          "type": "string"
        },
        {
          "name": "_sender",
          "type": "address"
        }
      ],
      "name": "claimQR",
      "outputs": [],
      "payable": false,
      "stateMutability": "nonpayable",
      "type": "function"
    },
    {
      "constant": true,
      "inputs": [
        {
          "name": "_id",
          "type": "uint256"
        }
      ],
      "name": "checkId",
      "outputs": [
        {
          "name": "qr",
          "type": "bytes32"
        }
      ],
      "payable": false,
      "stateMutability": "view",
      "type": "function"
    }
  ],
  "bytecode": "0x608060405234801561001057600080fd5b506105ed806100206000396000f3fe608060405234801561001057600080fd5b5060043610610069576000357c010000000000000000000000000000000000000000000000000000000090048063096a75dc1461006e578063205a26fb146100b0578063bf3cd524146100f2578063c057d6dd146101d7575b600080fd5b61009a6004803603602081101561008457600080fd5b8101908080359060200190929190505050610292565b6040518082815260200191505060405180910390f35b6100dc600480360360208110156100c657600080fd5b81019080803590602001909291905050506102b3565b6040518082815260200191505060405180910390f35b6101d56004803603606081101561010857600080fd5b81019080803590602001909291908035906020019064010000000081111561012f57600080fd5b82018360208201111561014157600080fd5b8035906020019184600183028401116401000000008311171561016357600080fd5b91908080601f016020809104026020016040519081016040528093929190818152602001838380828437600081840152601f19601f820116905080830192505050505050509192919290803573ffffffffffffffffffffffffffffffffffffffff1690602001909291905050506102d0565b005b610290600480360360208110156101ed57600080fd5b810190808035906020019064010000000081111561020a57600080fd5b82018360208201111561021c57600080fd5b8035906020019184600183028401116401000000008311171561023e57600080fd5b91908080601f016020809104026020016040519081016040528093929190818152602001838380828437600081840152601f19601f820116905080830192505050505050509192919290505050610497565b005b6000818154811061029f57fe5b906000526020600020016000915090505481565b600060026000838152602001908152602001600020549050919050565b6000826040516020018082805190602001908083835b6020831061030957805182526020820191506020810190506020830392506102e6565b6001836020036101000a038019825116818451168082178552505050505050905001915050604051602081830303815290604052805190602001209050600080858154811061035457fe5b906000526020600020015490508181146103d6576040517f08c379a000000000000000000000000000000000000000000000000000000000815260040180806020018281038252601e8152602001807f74686973206973206e6f7420612076616c6964207172206d792064756465000081525060200191505060405180910390fd5b826001600084815260200190815260200160002060006101000a81548173ffffffffffffffffffffffffffffffffffffffff021916908373ffffffffffffffffffffffffffffffffffffffff1602179055507fce481c60e384e1a5e84ea37e25a56a2008355c58a7de32554cc1b19d59c2175f60405180806020018281038252600b8152602001807f515220636c61696d65642100000000000000000000000000000000000000000081525060200191505060405180910390a15050505050565b6000816040516020018082805190602001908083835b602083106104d057805182526020820191506020810190506020830392506104ad565b6001836020036101000a0380198251168184511680821785525050505050509050019150506040516020818303038152906040528051906020012090508060026000808054905081526020019081526020016000208190555060008190806001815401808255809150509060018203906000526020600020016000909192909190915055507fb43e89a881c664a01df3057319bea7dbc3650c000e04a0891e2c662b29c812986040518080602001828103825260188152602001807f51522073746f726564207375636365737366756c6c792121000000000000000081525060200191505060405180910390a1505056fea165627a7a7230582066912743e2dbffe4e082e654db5056427ef02a15129f09839f51a6fef2caae660029",
  "source": "pragma solidity >=0.4.21 <0.6.0;\n\ncontract Meowbject {\n    event MeowbjectAdded(string _message);\n    event MeowbjectClaimed(string _message);\n\n    bytes32[] public qrs;\n    mapping(bytes32 => address) qrOwnership;\n    mapping(uint => bytes32) qrIds;\n\n    function addQR(string memory _qr) public {\n        bytes32 hashedQR = keccak256(abi.encodePacked(_qr));\n        qrIds[qrs.length] = hashedQR;\n        qrs.push(hashedQR);\n        emit MeowbjectAdded(\"QR stored successfully!!\");\n    }\n\n    function claimQR(uint _id, string memory _qr, address _sender) public {\n        bytes32 hashedQR = keccak256((abi.encodePacked(_qr)));\n        bytes32 pQR = qrs[_id];\n        require(pQR == hashedQR, \"this is not a valid qr my dude\");\n        qrOwnership[hashedQR] = _sender;\n        emit MeowbjectClaimed('QR claimed!');\n    }\n\n    function checkId(uint _id) public view returns (bytes32 qr) {\n        return qrIds[_id];\n    }\n}\n",
  "sourcePath": "C:/Users/ariel/meowbjects/contracts/Meowbject.sol",
  "compiler": {
    "name": "solc",
    "version": "0.5.8+commit.23d335f2.Emscripten.clang"
  },
  "schemaVersion": "3.0.11",
  "updatedAt": "2019-09-26T05:17:18.420Z",
  "devdoc": {
    "methods": {}
  },
  "userdoc": {
    "methods": {}
  }
}