{
  "contractName": "SimpleStorage",
  "abi": [
    {
      "constant": true,
      "inputs": [],
      "name": "storedData",
      "outputs": [
        {
          "name": "",
          "type": "bytes32"
        }
      ],
      "payable": false,
      "stateMutability": "view",
      "type": "function"
    },
    {
      "anonymous": false,
      "inputs": [
        {
          "indexed": false,
          "name": "_message",
          "type": "string"
        }
      ],
      "name": "StorageSet",
      "type": "event"
    },
    {
      "constant": false,
      "inputs": [
        {
          "name": "x",
          "type": "string"
        }
      ],
      "name": "set",
      "outputs": [],
      "payable": false,
      "stateMutability": "nonpayable",
      "type": "function"
    }
  ],
  "bytecode": "0x608060405234801561001057600080fd5b50610246806100206000396000f3fe608060405234801561001057600080fd5b5060043610610053576000357c0100000000000000000000000000000000000000000000000000000000900480632a1afcd9146100585780634ed3885e14610076575b600080fd5b610060610131565b6040518082815260200191505060405180910390f35b61012f6004803603602081101561008c57600080fd5b81019080803590602001906401000000008111156100a957600080fd5b8201836020820111156100bb57600080fd5b803590602001918460018302840111640100000000831117156100dd57600080fd5b91908080601f016020809104026020016040519081016040528093929190818152602001838380828437600081840152601f19601f820116905080830192505050505050509192919290505050610137565b005b60005481565b806040516020018082805190602001908083835b6020831061016e578051825260208201915060208101905060208303925061014b565b6001836020036101000a038019825116818451168082178552505050505050905001915050604051602081830303815290604052805190602001206000819055507f60cdc157ca4737a5d39a0e107532616e7bf6946e615228812c7f9bc9f81797a660405180806020018281038252601a8152602001807f446174612073746f726564207375636365737366756c6c79212100000000000081525060200191505060405180910390a15056fea165627a7a7230582017e598b544b43641b463eaa7fba2e690802d518d95ef19ddf777b189f057f3050029",
  "source": "pragma solidity >=0.4.21 <0.6.0;\n\ncontract SimpleStorage {\n    event StorageSet(string _message);\n\n    bytes32 public storedData;\n\n    function set(string memory x) public {\n        storedData = keccak256(abi.encodePacked(x));\n\n        emit StorageSet(\"Data stored successfully!!\");\n    }\n}\n",
  "sourcePath": "C:/Users/ariel/meowbjects/contracts/SimpleStorage.sol",
  "compiler": {
    "name": "solc",
    "version": "0.5.8+commit.23d335f2.Emscripten.clang"
  },
  "schemaVersion": "3.0.11",
  "updatedAt": "2019-09-26T02:44:08.959Z",
  "devdoc": {
    "methods": {}
  },
  "userdoc": {
    "methods": {}
  }
}